:060000000A128A110C280F
:10000800FE00030EF0000A08F1000A128A15E82C17
:100018000A128A110F2883134D30FD000D30FE009F
:10002800DC30FF00203084000A128A150D250A12E0
:100038008A11DE01DF01E001E101E201E301E401EF
:10004800E501E601E701FB01FA0183010A128A11C1
:100058002D287030831603138F0083160317890128
:10006800831603138113033095008312031386113B
:100078000B3083120313DD002630DC005D30DB001B
:10008800DB0B4428DC0B4428DD0B442800308312AA
:100098000313D6000130D5008630D400A030D30039
:1000A8000A128A1509260A128A110A128A116A2660
:1000B8000A128A11831203130618632864285A291E
:1000C8000A128A155E250A128A11031C6C286D28EB
:1000D8005A29FB0183120313D101D10A6508D20002
:1000E80007300A128A11AD230A128A1183120313E8
:1000F800E500D101D10A6608D2000A300A128A1135
:10010800AD230A128A1183120313E600D101D10A22
:100118006708D2000D300A128A11AD230A128A111B
:1001280083120313E7000230D1006408D2000730BD
:100138000A128A11AD230A128A1183120313E400EA
:100148000230D1006308D2000A300A128A11AD23A6
:100158000A128A1183120313E3000230D1006208E5
:10016800D2000F300A128A11AD230A128A118312A3
:100178000313E2000A128A155E250A128A1103186F
:10018800C628C728BE288312031367080A128A11D3
:10019800CE270A128A1183120313E70066080A128F
:1001A8008A11CE270A128A1183120313E600650802
:1001B8000A128A11CE270A128A1183120313E50044
:1001C80064080A128A11CE270A128A1183120313AD
:1001D800E40063080A128A11CE270A128A118312D0
:1001E8000313E30062080A128A11CE270A128A1141
:1001F80083120313E2000A128A15CC240A128A1108
:10020800D0300A128A15F7240A128A1100300A120D
:100218008A15F7240A128A118312031367080A122F
:100228008A15F7240A128A118312031366080A1220
:100238008A15F7240A128A118312031365080A1211
:100248008A15F7240A128A1101300A128A15F7242E
:100258000A128A118312031364080A128A15F724F2
:100268000A128A118312031363080A128A15F724E3
:100278000A128A118312031362080A128A15F724D4
:100288000A128A110A128A15DA240A128A1103300C
:1002980083120313DD000830DC007630DB00DB0B53
:1002A8005329DC0B5329DD0B532900008312031358
:1002B80006195F296029032A0A128A155E250A127F
:1002C8008A11031C68296929032A0530FB000330B9
:1002D80083120313D1006008D20005300A128A1174
:1002E800AD230A128A1183120313E0000330D100F0
:1002F8006108D20008300A128A11AD230A128A1145
:1003080083120313E1000330D3005E08D4001230D7
:100318000A128A11C1250A128A1183120313DE00F8
:100328000530FB000A128A155E250A128A11031885
:100338009E299F2996298312031361080A128A119C
:10034800CE270A128A1183120313E10060080A12E9
:100358008A11CE270A128A1183120313E0000A12A7
:100368008A15CC240A128A11D0300A128A15F72469
:100378000A128A1107300A128A15F7240A128A11FA
:1003880000300A128A15F7240A128A1183120313FD
:1003980061080A128A15F7240A128A1183120313B4
:1003A80060080A128A15F7240A128A1180300A1284
:1003B8008A15F7240A128A11831203135E08043877
:1003C8000A128A15F7240A128A1100300A128A15AD
:1003D800F7240A128A110A128A15DA240A128A11D3
:1003E800033083120313DD000830DC007630DB00B5
:1003F800DB0BFC29DC0BFC29DD0BFC29000083123C
:1004080003138618082A092A392A861D0C2A0D2A58
:10041800392A86110A128A15CC240A128A11D03078
:100428000A128A15F7240A128A110E300A128A153E
:10043800F7240A128A11831203135F1C242A262A1E
:100448000130272A00305E0504380A128A15F7247D
:100458000A128A1100300A128A15F7240A128A1120
:100468000A128A15DA240A128A110A128A15A22790
:100478000A128A110A128A11C9240A128A110A1246
:100488008A1156220A128A11823083120313DC0061
:10049800DD30DB00DB0B4E2ADC0B4E2A5E280A120D
:1004A8008A110C288312031367080A128A1531254A
:1004B8000A128A1183120313E70066080A128A15C2
:1004C80031250A128A1183120313E60065080A12FD
:1004D8008A1531250A128A1183120313E50064086C
:1004E8000A128A1531250A128A1183120313E400AD
:1004F80063080A128A1531250A128A118312031316
:10050800E30062080A128A1531250A128A11831239
:100518000313E2000A30F2000030F3006508D1004E
:10052800D2015108F4005208F5000A128A11FD267A
:100538000A128A117208303E83120313B7000A3078
:10054800F2000030F3006508D100D2015108F40030
:100558005208F5000A128A15EF260A128A11720843
:10056800303E83120313B8000A30F2000030F30063
:100578006608D100D2015108F4005208F5000A12A9
:100588008A11FD260A128A117208303E831203135B
:10059800BA000A30F2000030F3006608D100D20138
:1005A8005108F4005208F5000A128A15EF260A12BB
:1005B8008A117208303E83120313BB000A30F2001E
:1005C8000030F3006708D100D2015108F400520846
:1005D800F5000A128A11FD260A128A117208303EA5
:1005E80083120313BD000A30F2000030F3006708DD
:1005F800D100D2015108F4005208F5000A128A15F8
:10060800EF260A128A117208303E83120313BE00C5
:100618000A30F2000030F3006408D100D20151081A
:10062800F4005208F5000A128A11FD260A128A11EE
:100638007208303E83120313A6000A30F20000301D
:10064800F3006408D100D2015108F4005208F50003
:100658000A128A15EF260A128A117208303E83128E
:100668000313A7000A30F2000030F3006308D1003A
:10067800D2015108F4005208F5000A128A11FD2629
:100688000A128A117208303E83120313A9000A3035
:10069800F2000030F3006308D100D2015108F400E1
:1006A8005208F5000A128A15EF260A128A117208F2
:1006B800303E83120313AA000A30F2000030F30020
:1006C8006208D100D2015108F4005208F5000A125C
:1006D8008A11FD260A128A117208303E831203130A
:1006E800AE000A30F2000030F3006208D100D201F7
:1006F8005108F4005208F5000A128A15EF260A126A
:100708008A117208303E83120313AF00F701F70A0B
:1007180001300A128A1570260A128A113130F40043
:100728000030F5000A128A15A8260A128A1102302A
:10073800F70001300A128A1570260A128A11203031
:10074800F4000030F5000A128A15A8260A128A1148
:10075800080083120313D6000A128A155E250A12AE
:100768008A110318B82BB92BB02B552C0130D300A4
:100778005308D2077B08031DC22BC32BCA2B183082
:100788005202031CC82BC92BCA2BD2017B03031DA1
:10079800CE2BCF2BD62B3C305202031CD42BD52B7F
:1007A800D62BD20102307B06031DDB2BDC2BE32B7F
:1007B8003C305202031CE12BE22BE32BD201033025
:1007C8007B06031DE82BE92BF12B20305202031C7A
:1007D800EE2BEF2BF12BD201D20A04307B06031D3E
:1007E800F62BF72BFF2B0D305202031CFC2BFD2B95
:1007F800FF2BD201D20A05307B06031D042C052CE1
:100808000C2C64305202031C0A2C0B2C0C2CD20129
:100818005108F70056080A128A1570260A128A111A
:100828000A30F2000030F300831203135208D30099
:10083800D4015308F4005408F5000A128A11FD2661
:100848000A128A117208303E0A128A1547250A12BE
:100858008A110A30F2000030F300831203135208A1
:10086800D300D4015308F4005408F5000A128A157D
:10087800EF260A128A117208303E0A128A15472595
:100888000A128A11033083120313D5000830D400EA
:100898007630D300D30B4E2CD40B4E2CD50B4E2CCC
:1008A800000083120313861C5A2C5B2CBA2B5108A8
:1008B800F70056080A128A1570260A128A1109309A
:1008C800F4008030F5000A128A15A8260A128A1147
:1008D8000A128A1587250A128A11831203135108EE
:1008E800F70056080A128A1570260A128A110A3069
:1008F800F2000030F300831203135208D300D4012E
:100908005308F4005408F5000A128A11FD260A1249
:100918008A117208303E0A128A1547250A128A116E
:100928000A30F2000030F300831203135208D30098
:10093800D4015308F4005408F5000A128A15EF266A
:100948000A128A117208303E0A128A1547250A12BD
:100958008A110A128A1587250A128A11831203132B
:100968000618B72CB82C552C0A128A155E250A12BF
:100978008A11031CC02CC12C552C0130831203137F
:10098800D3005308FB07520808000A128A15CC2422
:100998000A128A11D0300A128A15F7240A128A110B
:1009A80008300A128A15F7240A128A110A128A15BF
:1009B800BE240A128A11D1300A128A15F7240A12A3
:1009C8008A1101300A128A153A260A128A118312EC
:1009D8000313E10001300A128A153A260A128A1115
:1009E80083120313E00001300A128A153A260A120C
:1009F8008A1101300A128A153A260A128A118312BC
:100A08000313D30001300A128A153A260A128A11F2
:100A180083120313DF0001300A128A153A260A12DC
:100A28008A110A128A15DA240A128A118312031308
:100A380061080A128A1531250A128A1183120313D2
:100A4800E10060080A128A1531250A128A118312F8
:100A58000313E0000A30F2000030F3006108D1000F
:100A6800D2015108F4005208F5000A128A15EF263F
:100A78000A128A117208303E83120313C8000A3022
:100A8800F2000030F3006108D100D2015108F400EF
:100A98005208F5000A128A11FD260A128A117208F4
:100AA800303E83120313C7000A30F2000030F3000F
:100AB8006008D100D2015108F4005208F5000A126A
:100AC8008A15EF260A128A117208303E8312031320
:100AD800C5000A30F2000030F3006008D100D201EE
:100AE8005108F4005208F5000A128A11FD260A126C
:100AF8008A117208303E83120313C4005308013967
:100B0800DE000330F70001300A128A1570260A1237
:100B18008A114030F4000030F5000A128A15A82620
:100B28000A128A11831203135E0803199C2D9D2D46
:100B3800AF2D0330F70012300A128A1570260A12F8
:100B48008A110530F4008030F5000A128A15A826AB
:100B58000A128A11C02D0330F70012300A128A15C2
:100B680070260A128A110C30F4008030F5000A123F
:100B78008A15A8260A128A11080083120313D800BE
:100B88000A128A155E250A128A110318CC2DCD2D5A
:100B9800C42D082E54080319D22DD42D0130D52D7B
:100BA80000300139D4005308F70058080A128A1592
:100BB80070260A128A11831203135403031DE52DAC
:100BC800E62DF02D0130F4008030F5000A128A1568
:100BD800A8260A128A11F92D0530F4008030F50094
:100BE8000A128A15A8260A128A11033083120313DF
:100BF800D7000830D6007630D500D50B012ED60B9D
:100C0800012ED70B012E000083120313861C0D2E14
:100C18000E2ECE2D5308F70058080A128A15702692
:100C28000A128A110930F4008030F5000A128A1578
:100C3800A8260A128A110A128A1587250A128A1109
:100C4800831203135308F70058080A128A157026EE
:100C58000A128A11831203135403031D342E352EEE
:100C68003F2E0130F4008030F5000A128A15A826BC
:100C78000A128A11482E0530F4008030F5000A1255
:100C88008A15A8260A128A110A128A1587250A12B5
:100C98008A110A128A15A2270A128A110A128A11BF
:100CA80056220A128A118312031306195C2E5D2E2E
:100CB800082E0A128A155E250A128A11031C652E4F
:100CC800662E082E83120313540808007A10831224
:100CD8000313081088100811881108128812831647
:100CE8000313081088100811881108128812683038
:100CF800F800E430F700F70B7F2EF80B7F2E00008A
:100D080003300A128A15B1250A128A110D30F8002B
:100D1800FB30F700F70B8E2EF80B8E2E932E033038
:100D28000A128A15B1250A128A110D30F800FB3013
:100D3800F700F70B9D2EF80B9D2EA22E03300A12FA
:100D48008A15B1250A128A110D30F800FB30F70018
:100D5800F70BAC2EF80BAC2EB12E02300A128A1506
:100D6800B1250A128A110D30F800FB30F700F70B95
:100D7800BB2EF80BBB2EC02E28300A128A15B125BF
:100D88000A128A118230F800DD30F700F70BCA2EFC
:100D9800F80BCA2ECF2E0C300A128A15B1250A126A
:100DA8008A118230F800DD30F700F70BD92EF80BE6
:100DB800D92EDE2E01300A128A15B1250A128A119F
:100DC8008230F800DD30F700F70BE82EF80BE82E3C
:100DD800ED2E06300A128A15B1250A128A118230C0
:100DE800F800DD30F700F70BF72EF80BF72EFC2E86
:100DF800080083120313CE01F31F032F042F0B2FB8
:100E0800F209F309F20A0319F30ACE01CE0AF51F13
:100E18000E2F0F2F182FF409F509F40A0319F50AF4
:100E28000130F6007608CE06CF01D00172087304AF
:100E380003191F2F202F572FCD01CD0A2E2F013038
:100E48000310F20DF30DFF3E031D242F0130F600B1
:100E58007608CD07F31F312F322F232F01300310CF
:100E6800CF0DD00DFF3E031D332F73087502031DF0
:100E78003F2F72087402031C422F432F4A2F720817
:100E8800F4027308031CF503F5024F140130031034
:100E9800F30CF20CFF3E031D4B2F0130CD02031D56
:100EA800562F572F322F4E0803195B2F5C2F612FB7
:100EB800CF09D009CF0A0319D00A5008F3004F0808
:100EC800F2000800003083120313D1000030D00074
:100ED8000030CF000030CE0075087404730472042B
:100EE8000319772F782FC52FD201D20A882F013006
:100EF800CD000310F20DF30DF40DF50DCD0B7D2F84
:100F08000130CD004D08D207F51F8B2F8C2F7B2F7A
:100F18000130CD000310CE0DCF0DD00DD10DCD0B6E
:100F28008E2F75087902031DA32F74087802031DFC
:100F3800A32F73087702031DA32F72087602031CE0
:100F4800A62FA72FB62F7208F6027308031C730F7B
:100F5800F7027408031C740FF8027508031C750F58
:100F6800F9024E1401300310F50CF40CF30CF20CDA
:100F7800FF3E031DB72F0130D202031DC42FC52F1A
:100F88008C2F5108F5005008F4004F08F3004E0864
:100F9800F2000800F9000A30F2000030F300790886
:100FA80083120313D100D2015108F4005208F5004E
:100FB8000A128A11FD260A128A1172088312031373
:100FC800D30004300310D30DFF3E031DE62F0A3073
:100FD800F2000030F3007908D400D5015408F40079
:100FE8005508F5000A128A15EF260A128A117208A6
:100FF8008312031353070800FF1B0A2883137F1863
:1010080083170008840A0319FF0A080008308A00B9
:101018000408840A820700344F344E3420340034E4
:101028004F344634463400342034203400344F34AE
:041038004E340034FE
:10197C00831603131419C32CC42CBE2C11081F3945
:10198C00031DC92CCA2CBE2C9114080083160313FA
:10199C001419D12CD22CCC2C11081F39031DD72C87
:1019AC00D82CCC2C11140800831603131419DF2C1B
:1019BC00E02CDA2C11081F39031DE52CE62CDA2C4F
:1019CC00111508008B1CEB2CEC2CF02C8312031340
:1019DC0086158B1071088A00700E8300FE0E7E0E29
:1019EC000900F200831603131419FD2CFE2CF82C9D
:1019FC0011081F39031D032D042DF82C72088312B6
:101A0C000313930008007E088A007F0882000A12E4
:101A1C008A1509250A128A158000840A04087D0695
:101A2C0003190034FF0A0319FE0A0D2DF500F40109
:101A3C00751C212D222D262D7208F3007308F40736
:101A4C000310F20D0310F50C7508031D2E2D2F2D10
:101A5C001E2D74080800F8000F307805F6000A30C7
:101A6C00F2007808F70004300310F70CFF3E031D5A
:101A7C003A2D77080A128A151C250A128A15760740
:101A8C000800F5007A147508F40004300310F40C07
:101A9C00FF3E031D4C2D74080A128A1548270A12A2
:101AAC008A1575080A128A1548270A128A15080021
:101ABC00F401F501831203130618652D662D6A2DAA
:101ACC000130F2007208F4071A30F300F830F2001B
:101ADC00F20B6E2DF30B6E2D00000130F20072082C
:101AEC00F50706307502031C7C2D7D2D602D03300F
:101AFC007402031C822D832D852D0314862D031057
:101B0C000800F401962D0130F2007208F4070D3034
:101B1C00F300FB30F200F20B912DF30B912D962D6F
:101B2C006430740203189B2D9C2DB02D831203136B
:101B3C00061CA12DA22DB02D861CA52DA62DB02DD9
:101B4C000619A92DAA2D892D05307B02031CAF2D5A
:101B5C00B02D892D0800F6007A107608F4000430B8
:101B6C000310F40CFF3E031DB62D74080A128A15DF
:101B7C0048270A128A1576080A128A1548270A126B
:101B8C008A1576030319CB2DCC2DD22D0230760677
:101B9C00031DD12DD22DDB2D0630F5003030F40095
:101BAC00F40BD62DF50BD62D00000800443441342F
:101BBC00543445343A342034303430342F343034C7
:101BCC0030342F34323430343034303400345434F4
:101BDC0049344D3445343A342034303430343A348A
:101BEC00303430343A3430343034003441344C34C2
:101BFC003A342034303430343A34303430343A34AB
:101C0C0030343034003428308312031394005308DA
:101C1C00D7005408D8005508D9005608DA0002300D
:101C2C000310D70DD80DD90DDA0DFF3E031D162E5E
:101C3C005A08F5005908F4005808F3005708F20048
:101C4C000030F9007A30F8001230F7000030F6005E
:101C5C000A128A1166270A128A157208FF3E831629
:101C6C000313930094010800F20083160313141954
:101C7C00402E412E3B2E11081F39031D462E472E98
:101C8C003B2E911514194B2E4C2E482E11081F3932
:101C9C00031D512E522E482E831203131308F300EA
:101CAC008316031314195B2E5C2E562E11081F3944
:101CBC00031D612E622E562E72080319662E6A2E93
:101CCC008316031391166D2E83160313911211169E
:101CDC007308080083120313CD00942E4D08BF3EE9
:101CEC000A128A15B1250A128A15A72E4D08933EA1
:101CFC000A128A15B1250A128A15A72E4D08D33E51
:101D0C000A128A15B1250A128A15A72E4D087F3E94
:101D1C000A128A15B1250A128A15A72E7708F8001F
:101D2C00F9017908003A03199C2E8C2E7808023A96
:101D3C000319742E013A03197C2E073A0319842EC9
:101D4C008C2E0800F7017A14DB2E770874078400B8
:101D5C0075080318750AFF000A128A1500200A126A
:101D6C008A15F60004300310F60CFF3E031DB92E45
:101D7C0076080A128A1548270A128A1577087407FA
:101D8C00840075080318750A83120313FF000A12E6
:101D9C008A1500200A128A150A128A1548270A1277
:101DAC008A150130F6007608F70777087407840067
:101DBC0075080318750A83120313FF000A128A159B
:101DCC0000200A128A15003A031DED2EEE2EAB2EC2
:101DDC000800F801F51FF32EF42EFB2EF409F5097B
:101DEC00F40A0319F50AF801F80AF31FFE2EFF2E68
:101DFC00042FF209F309F20A0319F30A72087304A7
:101E0C000319092F0A2F392FF701F70A182F013060
:101E1C000310F20DF30DFF3E031D0E2F0130F600E3
:101E2C007608F707F31F1B2F1C2F0D2F7308750255
:101E3C00031D222F72087402031C252F262F2C2F12
:101E4C007208F4027308031CF503F5020130031049
:101E5C00F30CF20CFF3E031D2D2F0130F702031D76
:101E6C00382F392F1C2F780803193D2F3E2F432F65
:101E7C00F409F509F40A0319F50A7508F300740856
:101E8C00F2000800F3007A184C2F502F8312031322
:101E9C000814532F8312031308107318562F5A2F3C
:101EAC008312031308155D2F831203130811730893
:101EBC00F20001300310F20CFF3E031D602F72186C
:101ECC00682F6C2F8312031388156F2F8312031343
:101EDC0088117308F20002300310F20CFF3E031D50
:101EEC00722F72187A2F7E2F831203130816812FEC
:101EFC008312031308127308F20003300310F20C60
:101F0C00FF3E031D842F72188C2F902F8312031306
:101F1C008816932F8312031388128810952F83121F
:101F2C0003138814992F8312031388104230F20084
:101F3C00F20B9E2F000008000A128A15CC240A12FC
:101F4C008A15D0300A128A15F7240A128A15003025
:101F5C000A128A15F7240A128A150A128A15BE2447
:101F6C000A128A15D1300A128A15F7240A128A1518
:101F7C0001300A128A153A260A128A1583120313A3
:101F8C00E70001300A128A153A260A128A158312C2
:101F9C000313E60001300A128A153A260A128A1532
:101FAC0083120313E50001300A128A153A260A122D
:101FBC008A1501300A128A153A260A128A158312DA
:101FCC000313E40001300A128A153A260A128A1504
:101FDC0083120313E30000300A128A153A260A1200
:101FEC008A1583120313E2000A128A15DA240A12E4
:041FFC008A1508003A
:08400000FF3FFF3FFF3FFF3FC0
:04400E00D42CFF3F70
:00000001FF
